{
  "contractName": "Distribution",
  "abi": [
    {
      "anonymous": false,
      "inputs": [
        {
          "indexed": true,
          "internalType": "address",
          "name": "previousOwner",
          "type": "address"
        },
        {
          "indexed": true,
          "internalType": "address",
          "name": "newOwner",
          "type": "address"
        }
      ],
      "name": "OwnershipTransferred",
      "type": "event"
    },
    {
      "constant": false,
      "inputs": [],
      "name": "ownable",
      "outputs": [],
      "payable": false,
      "stateMutability": "nonpayable",
      "type": "function"
    },
    {
      "constant": true,
      "inputs": [],
      "name": "owner",
      "outputs": [
        {
          "internalType": "address",
          "name": "",
          "type": "address"
        }
      ],
      "payable": false,
      "stateMutability": "view",
      "type": "function"
    },
    {
      "constant": false,
      "inputs": [
        {
          "internalType": "address",
          "name": "newOwner",
          "type": "address"
        }
      ],
      "name": "transferOwnership",
      "outputs": [],
      "payable": false,
      "stateMutability": "nonpayable",
      "type": "function"
    },
    {
      "constant": false,
      "inputs": [],
      "name": "Increase",
      "outputs": [],
      "payable": false,
      "stateMutability": "nonpayable",
      "type": "function"
    },
    {
      "constant": true,
      "inputs": [],
      "name": "NumberClient",
      "outputs": [
        {
          "internalType": "uint256",
          "name": "",
          "type": "uint256"
        }
      ],
      "payable": false,
      "stateMutability": "view",
      "type": "function"
    },
    {
      "constant": false,
      "inputs": [],
      "name": "HowMany",
      "outputs": [
        {
          "internalType": "uint256",
          "name": "",
          "type": "uint256"
        }
      ],
      "payable": false,
      "stateMutability": "nonpayable",
      "type": "function"
    }
  ],
  "bytecode": "0x6080604052600060015534801561001557600080fd5b506103f6806100256000396000f3fe608060405234801561001057600080fd5b50600436106100625760003560e01c806302f4a788146100675780638da5cb5b14610085578063a30dc05c146100cf578063b38854be146100ed578063f2fde38b146100f7578063fb6f95791461013b575b600080fd5b61006f610145565b6040518082815260200191505060405180910390f35b61008d61014f565b604051808273ffffffffffffffffffffffffffffffffffffffff1673ffffffffffffffffffffffffffffffffffffffff16815260200191505060405180910390f35b6100d7610174565b6040518082815260200191505060405180910390f35b6100f56101c8565b005b6101396004803603602081101561010d57600080fd5b81019080803573ffffffffffffffffffffffffffffffffffffffff16906020019092919050505061020a565b005b61014361035b565b005b6000600154905090565b6000809054906101000a900473ffffffffffffffffffffffffffffffffffffffff1681565b600060046001541161018957600a6002819055505b600154600410801561019e5750600660015411155b156101ac5760056002819055505b600660015411156101c05760016002819055505b600254905090565b336000806101000a81548173ffffffffffffffffffffffffffffffffffffffff021916908373ffffffffffffffffffffffffffffffffffffffff160217905550565b6000809054906101000a900473ffffffffffffffffffffffffffffffffffffffff1673ffffffffffffffffffffffffffffffffffffffff163373ffffffffffffffffffffffffffffffffffffffff161461026357600080fd5b600073ffffffffffffffffffffffffffffffffffffffff168173ffffffffffffffffffffffffffffffffffffffff16141561029d57600080fd5b8073ffffffffffffffffffffffffffffffffffffffff166000809054906101000a900473ffffffffffffffffffffffffffffffffffffffff1673ffffffffffffffffffffffffffffffffffffffff167f8be0079c531659141344cd1fd0a4f28419497f9722a3daafe3b4186f6b6457e060405160405180910390a3806000806101000a81548173ffffffffffffffffffffffffffffffffffffffff021916908373ffffffffffffffffffffffffffffffffffffffff16021790555050565b6000809054906101000a900473ffffffffffffffffffffffffffffffffffffffff1673ffffffffffffffffffffffffffffffffffffffff163373ffffffffffffffffffffffffffffffffffffffff16146103b457600080fd5b600180540160018190555056fea265627a7a723158207be1fb278da74abe6d563129f25e57528c85b7179f06de55b22b94d98f915a1b64736f6c63430005100032",
  "source": "pragma solidity >=0.4.25 <0.7.0;\r\n\r\nimport \"./Ownable.sol\";\r\n\r\ncontract Distribution is Ownable{\r\n\r\n    uint256 nb_client=0;\r\n    uint256 amount;\r\n\r\n\r\n   /**\r\n   * Increase the number of owners.\r\n   */\r\n    function Increase() public onlyOwner{\r\n        nb_client=nb_client+1;\r\n    }\r\n\r\n   /**\r\n   * NumberClient return how many poeple have our Token\r\n   */\r\n    function NumberClient() public view returns(uint256){\r\n        return nb_client;\r\n    }\r\n\r\n   /**\r\n   * We give more token for the first owners. \r\n   * This amount decrease with the number of owner.  \r\n   */\r\n\r\n    function HowMany() public returns(uint256){\r\n        if(nb_client<=4)\r\n        {\r\n            amount=10;\r\n        }\r\n        if(4<nb_client && nb_client<=6)\r\n        {\r\n            amount=5;\r\n        }\r\n        if(nb_client>6)\r\n        {\r\n            amount=1;\r\n        }\r\n\r\n        return amount;\r\n    }\r\n}",
  "sourcePath": "C:\\Users\\Miloj\\MetaCoin\\contracts\\Distribution.sol",
  "compiler": {
    "name": "solc",
    "version": "0.5.16+commit.9c3226ce.Emscripten.clang"
  },
  "schemaVersion": "3.0.23",
  "updatedAt": "2020-03-02T18:30:27.813Z",
  "devdoc": {
    "methods": {}
  },
  "userdoc": {
    "methods": {
      "HowMany()": {
        "notice": "We give more token for the first owners.  This amount decrease with the number of owner.  "
      },
      "Increase()": {
        "notice": "Increase the number of owners."
      },
      "NumberClient()": {
        "notice": "NumberClient return how many poeple have our Token"
      },
      "ownable()": {
        "notice": "The Ownable constructor sets the original `owner` of the contract to the sender account."
      },
      "transferOwnership(address)": {
        "notice": "Allows the current owner to transfer control of the contract to a newOwner. newOwner: The address to transfer ownership to."
      }
    }
  }
}